{
  "_format": "hh-sol-artifact-1",
  "contractName": "mintContractParent",
  "sourceName": "contracts/mintContractParent.sol",
  "abi": [
    {
      "anonymous": false,
      "inputs": [
        {
          "indexed": true,
          "internalType": "address",
          "name": "previousOwner",
          "type": "address"
        },
        {
          "indexed": true,
          "internalType": "address",
          "name": "newOwner",
          "type": "address"
        }
      ],
      "name": "OwnershipTransferred",
      "type": "event"
    },
    {
      "anonymous": false,
      "inputs": [
        {
          "indexed": false,
          "internalType": "address",
          "name": "",
          "type": "address"
        },
        {
          "indexed": false,
          "internalType": "address",
          "name": "",
          "type": "address"
        }
      ],
      "name": "TokenCreated",
      "type": "event"
    },
    {
      "anonymous": false,
      "inputs": [
        {
          "indexed": false,
          "internalType": "address",
          "name": "",
          "type": "address"
        },
        {
          "indexed": false,
          "internalType": "address",
          "name": "",
          "type": "address"
        },
        {
          "indexed": false,
          "internalType": "address",
          "name": "",
          "type": "address"
        },
        {
          "indexed": false,
          "internalType": "uint256",
          "name": "",
          "type": "uint256"
        }
      ],
      "name": "TokenTransfered",
      "type": "event"
    },
    {
      "inputs": [
        {
          "internalType": "address",
          "name": "mintor",
          "type": "address"
        },
        {
          "internalType": "address",
          "name": "tokenAddress",
          "type": "address"
        },
        {
          "internalType": "uint256",
          "name": "start",
          "type": "uint256"
        },
        {
          "internalType": "uint256",
          "name": "end",
          "type": "uint256"
        },
        {
          "internalType": "string[]",
          "name": "tokenURI",
          "type": "string[]"
        }
      ],
      "name": "bulkMintERC721",
      "outputs": [],
      "stateMutability": "nonpayable",
      "type": "function"
    },
    {
      "inputs": [
        {
          "internalType": "string",
          "name": "name",
          "type": "string"
        },
        {
          "internalType": "string",
          "name": "symbol",
          "type": "string"
        }
      ],
      "name": "createToken",
      "outputs": [],
      "stateMutability": "nonpayable",
      "type": "function"
    },
    {
      "inputs": [],
      "name": "owner",
      "outputs": [
        {
          "internalType": "address",
          "name": "",
          "type": "address"
        }
      ],
      "stateMutability": "view",
      "type": "function"
    },
    {
      "inputs": [],
      "name": "renounceOwnership",
      "outputs": [],
      "stateMutability": "nonpayable",
      "type": "function"
    },
    {
      "inputs": [
        {
          "internalType": "address",
          "name": "newOwner",
          "type": "address"
        }
      ],
      "name": "transferOwnership",
      "outputs": [],
      "stateMutability": "nonpayable",
      "type": "function"
    },
    {
      "inputs": [
        {
          "internalType": "address",
          "name": "from",
          "type": "address"
        },
        {
          "internalType": "address payable",
          "name": "to",
          "type": "address"
        },
        {
          "internalType": "address",
          "name": "token",
          "type": "address"
        },
        {
          "internalType": "uint256",
          "name": "amount",
          "type": "uint256"
        }
      ],
      "name": "transferToken",
      "outputs": [],
      "stateMutability": "nonpayable",
      "type": "function"
    }
  ],
  "bytecode": "0x608060405234801561001057600080fd5b5061002d61002261003260201b60201c565b61003a60201b60201c565b6100fe565b600033905090565b60008060009054906101000a900473ffffffffffffffffffffffffffffffffffffffff169050816000806101000a81548173ffffffffffffffffffffffffffffffffffffffff021916908373ffffffffffffffffffffffffffffffffffffffff1602179055508173ffffffffffffffffffffffffffffffffffffffff168173ffffffffffffffffffffffffffffffffffffffff167f8be0079c531659141344cd1fd0a4f28419497f9722a3daafe3b4186f6b6457e060405160405180910390a35050565b6140988061010d6000396000f3fe60806040523480156200001157600080fd5b50600436106200006a5760003560e01c80632c54de4f146200006f5780632f2f2d56146200008f578063715018a614620000af5780638da5cb5b14620000bb578063df2150ba14620000dd578063f2fde38b14620000fd575b600080fd5b6200008d600480360381019062000087919062000700565b6200011d565b005b620000ad6004803603810190620000a7919062000807565b620001d7565b005b620000b962000256565b005b620000c56200026e565b604051620000d491906200094d565b60405180910390f35b620000fb6004803603810190620000f591906200076c565b62000297565b005b6200011b6004803603810190620001159190620006d4565b62000376565b005b8173ffffffffffffffffffffffffffffffffffffffff166368155ec1858585856040518563ffffffff1660e01b81526004016200015e949392919062000997565b600060405180830381600087803b1580156200017957600080fd5b505af11580156200018e573d6000803e3d6000fd5b505050507fa7814aaf178d6c8e61b2703f3dc1b8328dd6c99cbb405bf8f1bb0cb1bbb051a584848484604051620001c99493929190620009e4565b60405180910390a150505050565b60008282604051620001e99062000552565b620001f692919062000a65565b604051809103906000f08015801562000213573d6000803e3d6000fd5b5090507fd5f9bdf12adf29dab0248c349842c3822d53ae2bb4f36352f301630d018c81393382604051620002499291906200096a565b60405180910390a1505050565b6200026062000401565b6200026c600062000486565b565b60008060009054906101000a900473ffffffffffffffffffffffffffffffffffffffff16905090565b60008390505b828110156200036e578473ffffffffffffffffffffffffffffffffffffffff1663d204c45e87848481518110620002fd577f4e487b7100000000000000000000000000000000000000000000000000000000600052603260045260246000fd5b60200260200101516040518363ffffffff1660e01b81526004016200032492919062000a31565b600060405180830381600087803b1580156200033f57600080fd5b505af115801562000354573d6000803e3d6000fd5b505050508080620003659062000c97565b9150506200029d565b505050505050565b6200038062000401565b600073ffffffffffffffffffffffffffffffffffffffff168173ffffffffffffffffffffffffffffffffffffffff161415620003f3576040517f08c379a0000000000000000000000000000000000000000000000000000000008152600401620003ea9062000aa0565b60405180910390fd5b620003fe8162000486565b50565b6200040b6200054a565b73ffffffffffffffffffffffffffffffffffffffff166200042b6200026e565b73ffffffffffffffffffffffffffffffffffffffff161462000484576040517f08c379a00000000000000000000000000000000000000000000000000000000081526004016200047b9062000ac2565b60405180910390fd5b565b60008060009054906101000a900473ffffffffffffffffffffffffffffffffffffffff169050816000806101000a81548173ffffffffffffffffffffffffffffffffffffffff021916908373ffffffffffffffffffffffffffffffffffffffff1602179055508173ffffffffffffffffffffffffffffffffffffffff168173ffffffffffffffffffffffffffffffffffffffff167f8be0079c531659141344cd1fd0a4f28419497f9722a3daafe3b4186f6b6457e060405160405180910390a35050565b600033905090565b6132488062000e1b83390190565b600062000577620005718462000b0d565b62000ae4565b905080838252602082019050828560208602820111156200059757600080fd5b60005b85811015620005e657813567ffffffffffffffff811115620005bb57600080fd5b808601620005ca898262000690565b855260208501945060208401935050506001810190506200059a565b5050509392505050565b600062000607620006018462000b3c565b62000ae4565b9050828152602081018484840111156200062057600080fd5b6200062d84828562000c1c565b509392505050565b600081359050620006468162000dcc565b92915050565b6000813590506200065d8162000de6565b92915050565b600082601f8301126200067557600080fd5b81356200068784826020860162000560565b91505092915050565b600082601f830112620006a257600080fd5b8135620006b4848260208601620005f0565b91505092915050565b600081359050620006ce8162000e00565b92915050565b600060208284031215620006e757600080fd5b6000620006f78482850162000635565b91505092915050565b600080600080608085870312156200071757600080fd5b6000620007278782880162000635565b94505060206200073a878288016200064c565b93505060406200074d8782880162000635565b92505060606200076087828801620006bd565b91505092959194509250565b600080600080600060a086880312156200078557600080fd5b6000620007958882890162000635565b9550506020620007a88882890162000635565b9450506040620007bb88828901620006bd565b9350506060620007ce88828901620006bd565b925050608086013567ffffffffffffffff811115620007ec57600080fd5b620007fa8882890162000663565b9150509295509295909350565b600080604083850312156200081b57600080fd5b600083013567ffffffffffffffff8111156200083657600080fd5b620008448582860162000690565b925050602083013567ffffffffffffffff8111156200086257600080fd5b620008708582860162000690565b9150509250929050565b620008858162000be0565b82525050565b620008968162000ba2565b82525050565b620008a78162000b8e565b82525050565b6000620008ba8262000b72565b620008c6818562000b7d565b9350620008d881856020860162000c2b565b620008e38162000d43565b840191505092915050565b6000620008fd60268362000b7d565b91506200090a8262000d54565b604082019050919050565b60006200092460208362000b7d565b9150620009318262000da3565b602082019050919050565b620009478162000bd6565b82525050565b60006020820190506200096460008301846200089c565b92915050565b60006040820190506200098160008301856200089c565b6200099060208301846200089c565b9392505050565b6000608082019050620009ae60008301876200089c565b620009bd60208301866200088b565b620009cc60408301856200089c565b620009db60608301846200093c565b95945050505050565b6000608082019050620009fb60008301876200089c565b62000a0a60208301866200087a565b62000a1960408301856200089c565b62000a2860608301846200093c565b95945050505050565b600060408201905062000a4860008301856200089c565b818103602083015262000a5c8184620008ad565b90509392505050565b6000604082019050818103600083015262000a818185620008ad565b9050818103602083015262000a978184620008ad565b90509392505050565b6000602082019050818103600083015262000abb81620008ee565b9050919050565b6000602082019050818103600083015262000add8162000915565b9050919050565b600062000af062000b03565b905062000afe828262000c61565b919050565b6000604051905090565b600067ffffffffffffffff82111562000b2b5762000b2a62000d14565b5b602082029050602081019050919050565b600067ffffffffffffffff82111562000b5a5762000b5962000d14565b5b62000b658262000d43565b9050602081019050919050565b600081519050919050565b600082825260208201905092915050565b600062000b9b8262000bb6565b9050919050565b600062000baf8262000bb6565b9050919050565b600073ffffffffffffffffffffffffffffffffffffffff82169050919050565b6000819050919050565b600062000bed8262000bf4565b9050919050565b600062000c018262000c08565b9050919050565b600062000c158262000bb6565b9050919050565b82818337600083830152505050565b60005b8381101562000c4b57808201518184015260208101905062000c2e565b8381111562000c5b576000848401525b50505050565b62000c6c8262000d43565b810181811067ffffffffffffffff8211171562000c8e5762000c8d62000d14565b5b80604052505050565b600062000ca48262000bd6565b91507fffffffffffffffffffffffffffffffffffffffffffffffffffffffffffffffff82141562000cda5762000cd962000ce5565b5b600182019050919050565b7f4e487b7100000000000000000000000000000000000000000000000000000000600052601160045260246000fd5b7f4e487b7100000000000000000000000000000000000000000000000000000000600052604160045260246000fd5b6000601f19601f8301169050919050565b7f4f776e61626c653a206e6577206f776e657220697320746865207a65726f206160008201527f6464726573730000000000000000000000000000000000000000000000000000602082015250565b7f4f776e61626c653a2063616c6c6572206973206e6f7420746865206f776e6572600082015250565b62000dd78162000b8e565b811462000de357600080fd5b50565b62000df18162000ba2565b811462000dfd57600080fd5b50565b62000e0b8162000bd6565b811462000e1757600080fd5b5056fe60806040523480156200001157600080fd5b506040516200324838038062003248833981810160405281019062000037919062000197565b818181600090805190602001906200005192919062000075565b5080600190805190602001906200006a92919062000075565b50505050506200037a565b82805462000083906200029f565b90600052602060002090601f016020900481019282620000a75760008555620000f3565b82601f10620000c257805160ff1916838001178555620000f3565b82800160010185558215620000f3579182015b82811115620000f2578251825591602001919060010190620000d5565b5b50905062000102919062000106565b5090565b5b808211156200012157600081600090555060010162000107565b5090565b60006200013c620001368462000233565b6200020a565b9050828152602081018484840111156200015557600080fd5b6200016284828562000269565b509392505050565b600082601f8301126200017c57600080fd5b81516200018e84826020860162000125565b91505092915050565b60008060408385031215620001ab57600080fd5b600083015167ffffffffffffffff811115620001c657600080fd5b620001d4858286016200016a565b925050602083015167ffffffffffffffff811115620001f257600080fd5b62000200858286016200016a565b9150509250929050565b60006200021662000229565b9050620002248282620002d5565b919050565b6000604051905090565b600067ffffffffffffffff8211156200025157620002506200033a565b5b6200025c8262000369565b9050602081019050919050565b60005b83811015620002895780820151818401526020810190506200026c565b8381111562000299576000848401525b50505050565b60006002820490506001821680620002b857607f821691505b60208210811415620002cf57620002ce6200030b565b5b50919050565b620002e08262000369565b810181811067ffffffffffffffff821117156200030257620003016200033a565b5b80604052505050565b7f4e487b7100000000000000000000000000000000000000000000000000000000600052602260045260246000fd5b7f4e487b7100000000000000000000000000000000000000000000000000000000600052604160045260246000fd5b6000601f19601f8301169050919050565b612ebe806200038a6000396000f3fe608060405234801561001057600080fd5b50600436106101005760003560e01c806368155ec111610097578063b88d4fde11610066578063b88d4fde146102c0578063c87b56dd146102dc578063d204c45e1461030c578063e985e9c51461032857610100565b806368155ec11461023a57806370a082311461025657806395d89b4114610286578063a22cb465146102a457610100565b806323b872dd116100d357806323b872dd1461019f57806342842e0e146101bb57806351f28e14146101d75780636352211e1461020a57610100565b806301ffc9a71461010557806306fdde0314610135578063081812fc14610153578063095ea7b314610183575b600080fd5b61011f600480360381019061011a9190612025565b610358565b60405161012c9190612485565b60405180910390f35b61013d61043a565b60405161014a91906124a0565b60405180910390f35b61016d60048036038101906101689190612077565b6104cc565b60405161017a9190612379565b60405180910390f35b61019d60048036038101906101989190611fe9565b610512565b005b6101b960048036038101906101b49190611e8f565b61062a565b005b6101d560048036038101906101d09190611e8f565b61068a565b005b6101f160048036038101906101ec9190612077565b6106aa565b6040516102019493929190612440565b60405180910390f35b610224600480360381019061021f9190612077565b61073a565b6040516102319190612379565b60405180910390f35b610254600480360381019061024f9190611e2c565b6107ec565b005b610270600480360381019061026b9190611dc7565b61090f565b60405161027d9190612662565b60405180910390f35b61028e6109c7565b60405161029b91906124a0565b60405180910390f35b6102be60048036038101906102b99190611f59565b610a59565b005b6102da60048036038101906102d59190611ede565b610a6f565b005b6102f660048036038101906102f19190612077565b610ad1565b60405161030391906124a0565b60405180910390f35b61032660048036038101906103219190611f95565b610be4565b005b610342600480360381019061033d9190611df0565b610dc0565b60405161034f9190612485565b60405180910390f35b60007f80ac58cd000000000000000000000000000000000000000000000000000000007bffffffffffffffffffffffffffffffffffffffffffffffffffffffff1916827bffffffffffffffffffffffffffffffffffffffffffffffffffffffff1916148061042357507f5b5e139f000000000000000000000000000000000000000000000000000000007bffffffffffffffffffffffffffffffffffffffffffffffffffffffff1916827bffffffffffffffffffffffffffffffffffffffffffffffffffffffff1916145b80610433575061043282610e54565b5b9050919050565b60606000805461044990612900565b80601f016020809104026020016040519081016040528092919081815260200182805461047590612900565b80156104c25780601f10610497576101008083540402835291602001916104c2565b820191906000526020600020905b8154815290600101906020018083116104a557829003601f168201915b5050505050905090565b60006104d782610ebe565b6004600083815260200190815260200160002060009054906101000a900473ffffffffffffffffffffffffffffffffffffffff169050919050565b600061051d8261073a565b90508073ffffffffffffffffffffffffffffffffffffffff168373ffffffffffffffffffffffffffffffffffffffff16141561058e576040517f08c379a000000000000000000000000000000000000000000000000000000000815260040161058590612622565b60405180910390fd5b8073ffffffffffffffffffffffffffffffffffffffff166105ad610f09565b73ffffffffffffffffffffffffffffffffffffffff1614806105dc57506105db816105d6610f09565b610dc0565b5b61061b576040517f08c379a0000000000000000000000000000000000000000000000000000000008152600401610612906125c2565b60405180910390fd5b6106258383610f11565b505050565b61063b610635610f09565b82610fca565b61067a576040517f08c379a000000000000000000000000000000000000000000000000000000000815260040161067190612642565b60405180910390fd5b61068583838361105f565b505050565b6106a583838360405180602001604052806000815250610a6f565b505050565b60086020528060005260406000206000915090508060000160009054906101000a900473ffffffffffffffffffffffffffffffffffffffff16908060010154908060020160009054906101000a900473ffffffffffffffffffffffffffffffffffffffff16908060030160009054906101000a900473ffffffffffffffffffffffffffffffffffffffff16905084565b6000806002600084815260200190815260200160002060009054906101000a900473ffffffffffffffffffffffffffffffffffffffff169050600073ffffffffffffffffffffffffffffffffffffffff168173ffffffffffffffffffffffffffffffffffffffff1614156107e3576040517f08c379a00000000000000000000000000000000000000000000000000000000081526004016107da90612602565b60405180910390fd5b80915050919050565b600073ffffffffffffffffffffffffffffffffffffffff168273ffffffffffffffffffffffffffffffffffffffff1614610894578173ffffffffffffffffffffffffffffffffffffffff166323b872dd8585846040518463ffffffff1660e01b815260040161085d939291906123bd565b600060405180830381600087803b15801561087757600080fd5b505af115801561088b573d6000803e3d6000fd5b50505050610909565b8273ffffffffffffffffffffffffffffffffffffffff166108fc829081150290604051600060405180830381858888f19350505050610908576040517f08c379a00000000000000000000000000000000000000000000000000000000081526004016108ff906125a2565b60405180910390fd5b5b50505050565b60008073ffffffffffffffffffffffffffffffffffffffff168273ffffffffffffffffffffffffffffffffffffffff161415610980576040517f08c379a000000000000000000000000000000000000000000000000000000000815260040161097790612562565b60405180910390fd5b600360008373ffffffffffffffffffffffffffffffffffffffff1673ffffffffffffffffffffffffffffffffffffffff168152602001908152602001600020549050919050565b6060600180546109d690612900565b80601f0160208091040260200160405190810160405280929190818152602001828054610a0290612900565b8015610a4f5780601f10610a2457610100808354040283529160200191610a4f565b820191906000526020600020905b815481529060010190602001808311610a3257829003601f168201915b5050505050905090565b610a6b610a64610f09565b83836112c6565b5050565b610a80610a7a610f09565b83610fca565b610abf576040517f08c379a0000000000000000000000000000000000000000000000000000000008152600401610ab690612642565b60405180910390fd5b610acb84848484611433565b50505050565b6060610adc82610ebe565b6000600660008481526020019081526020016000208054610afc90612900565b80601f0160208091040260200160405190810160405280929190818152602001828054610b2890612900565b8015610b755780601f10610b4a57610100808354040283529160200191610b75565b820191906000526020600020905b815481529060010190602001808311610b5857829003601f168201915b505050505090506000610b8661148f565b9050600081511415610b9c578192505050610bdf565b600082511115610bd1578082604051602001610bb9929190612355565b60405160208183030381529060405292505050610bdf565b610bda846114a6565b925050505b919050565b6000610bf0600761150e565b9050610bfc838261151c565b610c06818361153a565b60405180608001604052803073ffffffffffffffffffffffffffffffffffffffff1681526020018281526020018473ffffffffffffffffffffffffffffffffffffffff168152602001600073ffffffffffffffffffffffffffffffffffffffff168152506008600083815260200190815260200160002060008201518160000160006101000a81548173ffffffffffffffffffffffffffffffffffffffff021916908373ffffffffffffffffffffffffffffffffffffffff1602179055506020820151816001015560408201518160020160006101000a81548173ffffffffffffffffffffffffffffffffffffffff021916908373ffffffffffffffffffffffffffffffffffffffff16021790555060608201518160030160006101000a81548173ffffffffffffffffffffffffffffffffffffffff021916908373ffffffffffffffffffffffffffffffffffffffff160217905550905050803073ffffffffffffffffffffffffffffffffffffffff167f3cdc47576e6dd717fcf52a4c5b90504e33271b642bc107171f4e580cf598a7a2856000604051610da9929190612394565b60405180910390a3610dbb60076115ae565b505050565b6000600560008473ffffffffffffffffffffffffffffffffffffffff1673ffffffffffffffffffffffffffffffffffffffff16815260200190815260200160002060008373ffffffffffffffffffffffffffffffffffffffff1673ffffffffffffffffffffffffffffffffffffffff16815260200190815260200160002060009054906101000a900460ff16905092915050565b60007f01ffc9a7000000000000000000000000000000000000000000000000000000007bffffffffffffffffffffffffffffffffffffffffffffffffffffffff1916827bffffffffffffffffffffffffffffffffffffffffffffffffffffffff1916149050919050565b610ec7816115c4565b610f06576040517f08c379a0000000000000000000000000000000000000000000000000000000008152600401610efd90612602565b60405180910390fd5b50565b600033905090565b816004600083815260200190815260200160002060006101000a81548173ffffffffffffffffffffffffffffffffffffffff021916908373ffffffffffffffffffffffffffffffffffffffff160217905550808273ffffffffffffffffffffffffffffffffffffffff16610f848361073a565b73ffffffffffffffffffffffffffffffffffffffff167f8c5be1e5ebec7d5bd14f71427d1e84f3dd0314c0f7b2291e5b200ac8c7c3b92560405160405180910390a45050565b600080610fd68361073a565b90508073ffffffffffffffffffffffffffffffffffffffff168473ffffffffffffffffffffffffffffffffffffffff16148061101857506110178185610dc0565b5b8061105657508373ffffffffffffffffffffffffffffffffffffffff1661103e846104cc565b73ffffffffffffffffffffffffffffffffffffffff16145b91505092915050565b8273ffffffffffffffffffffffffffffffffffffffff1661107f8261073a565b73ffffffffffffffffffffffffffffffffffffffff16146110d5576040517f08c379a00000000000000000000000000000000000000000000000000000000081526004016110cc906124e2565b60405180910390fd5b600073ffffffffffffffffffffffffffffffffffffffff168273ffffffffffffffffffffffffffffffffffffffff161415611145576040517f08c379a000000000000000000000000000000000000000000000000000000000815260040161113c90612522565b60405180910390fd5b611150838383611630565b61115b600082610f11565b6001600360008573ffffffffffffffffffffffffffffffffffffffff1673ffffffffffffffffffffffffffffffffffffffff16815260200190815260200160002060008282546111ab91906127ce565b925050819055506001600360008473ffffffffffffffffffffffffffffffffffffffff1673ffffffffffffffffffffffffffffffffffffffff16815260200190815260200160002060008282546112029190612747565b92505081905550816002600083815260200190815260200160002060006101000a81548173ffffffffffffffffffffffffffffffffffffffff021916908373ffffffffffffffffffffffffffffffffffffffff160217905550808273ffffffffffffffffffffffffffffffffffffffff168473ffffffffffffffffffffffffffffffffffffffff167fddf252ad1be2c89b69c2b068fc378daa952ba7f163c4a11628f55a4df523b3ef60405160405180910390a46112c1838383611635565b505050565b8173ffffffffffffffffffffffffffffffffffffffff168373ffffffffffffffffffffffffffffffffffffffff161415611335576040517f08c379a000000000000000000000000000000000000000000000000000000000815260040161132c90612542565b60405180910390fd5b80600560008573ffffffffffffffffffffffffffffffffffffffff1673ffffffffffffffffffffffffffffffffffffffff16815260200190815260200160002060008473ffffffffffffffffffffffffffffffffffffffff1673ffffffffffffffffffffffffffffffffffffffff16815260200190815260200160002060006101000a81548160ff0219169083151502179055508173ffffffffffffffffffffffffffffffffffffffff168373ffffffffffffffffffffffffffffffffffffffff167f17307eab39ab6107e8899845ad3d59bd9653f200f220920489ca2b5937696c31836040516114269190612485565b60405180910390a3505050565b61143e84848461105f565b61144a8484848461163a565b611489576040517f08c379a0000000000000000000000000000000000000000000000000000000008152600401611480906124c2565b60405180910390fd5b50505050565b606060405180602001604052806000815250905090565b60606114b182610ebe565b60006114bb61148f565b905060008151116114db5760405180602001604052806000815250611506565b806114e5846117d1565b6040516020016114f6929190612355565b6040516020818303038152906040525b915050919050565b600081600001549050919050565b61153682826040518060200160405280600081525061197e565b5050565b611543826115c4565b611582576040517f08c379a000000000000000000000000000000000000000000000000000000000815260040161157990612582565b60405180910390fd5b806006600084815260200190815260200160002090805190602001906115a9929190611bd6565b505050565b6001816000016000828254019250508190555050565b60008073ffffffffffffffffffffffffffffffffffffffff166002600084815260200190815260200160002060009054906101000a900473ffffffffffffffffffffffffffffffffffffffff1673ffffffffffffffffffffffffffffffffffffffff1614159050919050565b505050565b505050565b600061165b8473ffffffffffffffffffffffffffffffffffffffff166119d9565b156117c4578373ffffffffffffffffffffffffffffffffffffffff1663150b7a02611684610f09565b8786866040518563ffffffff1660e01b81526004016116a694939291906123f4565b602060405180830381600087803b1580156116c057600080fd5b505af19250505080156116f157506040513d601f19601f820116820180604052508101906116ee919061204e565b60015b611774573d8060008114611721576040519150601f19603f3d011682016040523d82523d6000602084013e611726565b606091505b5060008151141561176c576040517f08c379a0000000000000000000000000000000000000000000000000000000008152600401611763906124c2565b60405180910390fd5b805181602001fd5b63150b7a0260e01b7bffffffffffffffffffffffffffffffffffffffffffffffffffffffff1916817bffffffffffffffffffffffffffffffffffffffffffffffffffffffff1916149150506117c9565b600190505b949350505050565b60606000821415611819576040518060400160405280600181526020017f30000000000000000000000000000000000000000000000000000000000000008152509050611979565b600082905060005b6000821461184b57808061183490612963565b915050600a82611844919061279d565b9150611821565b60008167ffffffffffffffff81111561188d577f4e487b7100000000000000000000000000000000000000000000000000000000600052604160045260246000fd5b6040519080825280601f01601f1916602001820160405280156118bf5781602001600182028036833780820191505090505b5090505b60008514611972576001826118d891906127ce565b9150600a856118e791906129ac565b60306118f39190612747565b60f81b81838151811061192f577f4e487b7100000000000000000000000000000000000000000000000000000000600052603260045260246000fd5b60200101907effffffffffffffffffffffffffffffffffffffffffffffffffffffffffffff1916908160001a905350600a8561196b919061279d565b94506118c3565b8093505050505b919050565b61198883836119fc565b611995600084848461163a565b6119d4576040517f08c379a00000000000000000000000000000000000000000000000000000000081526004016119cb906124c2565b60405180910390fd5b505050565b6000808273ffffffffffffffffffffffffffffffffffffffff163b119050919050565b600073ffffffffffffffffffffffffffffffffffffffff168273ffffffffffffffffffffffffffffffffffffffff161415611a6c576040517f08c379a0000000000000000000000000000000000000000000000000000000008152600401611a63906125e2565b60405180910390fd5b611a75816115c4565b15611ab5576040517f08c379a0000000000000000000000000000000000000000000000000000000008152600401611aac90612502565b60405180910390fd5b611ac160008383611630565b6001600360008473ffffffffffffffffffffffffffffffffffffffff1673ffffffffffffffffffffffffffffffffffffffff1681526020019081526020016000206000828254611b119190612747565b92505081905550816002600083815260200190815260200160002060006101000a81548173ffffffffffffffffffffffffffffffffffffffff021916908373ffffffffffffffffffffffffffffffffffffffff160217905550808273ffffffffffffffffffffffffffffffffffffffff16600073ffffffffffffffffffffffffffffffffffffffff167fddf252ad1be2c89b69c2b068fc378daa952ba7f163c4a11628f55a4df523b3ef60405160405180910390a4611bd260008383611635565b5050565b828054611be290612900565b90600052602060002090601f016020900481019282611c045760008555611c4b565b82601f10611c1d57805160ff1916838001178555611c4b565b82800160010185558215611c4b579182015b82811115611c4a578251825591602001919060010190611c2f565b5b509050611c589190611c5c565b5090565b5b80821115611c75576000816000905550600101611c5d565b5090565b6000611c8c611c87846126a2565b61267d565b905082815260208101848484011115611ca457600080fd5b611caf8482856128be565b509392505050565b6000611cca611cc5846126d3565b61267d565b905082815260208101848484011115611ce257600080fd5b611ced8482856128be565b509392505050565b600081359050611d0481612e15565b92915050565b600081359050611d1981612e2c565b92915050565b600081359050611d2e81612e43565b92915050565b600081359050611d4381612e5a565b92915050565b600081519050611d5881612e5a565b92915050565b600082601f830112611d6f57600080fd5b8135611d7f848260208601611c79565b91505092915050565b600082601f830112611d9957600080fd5b8135611da9848260208601611cb7565b91505092915050565b600081359050611dc181612e71565b92915050565b600060208284031215611dd957600080fd5b6000611de784828501611cf5565b91505092915050565b60008060408385031215611e0357600080fd5b6000611e1185828601611cf5565b9250506020611e2285828601611cf5565b9150509250929050565b60008060008060808587031215611e4257600080fd5b6000611e5087828801611cf5565b9450506020611e6187828801611d0a565b9350506040611e7287828801611cf5565b9250506060611e8387828801611db2565b91505092959194509250565b600080600060608486031215611ea457600080fd5b6000611eb286828701611cf5565b9350506020611ec386828701611cf5565b9250506040611ed486828701611db2565b9150509250925092565b60008060008060808587031215611ef457600080fd5b6000611f0287828801611cf5565b9450506020611f1387828801611cf5565b9350506040611f2487828801611db2565b925050606085013567ffffffffffffffff811115611f4157600080fd5b611f4d87828801611d5e565b91505092959194509250565b60008060408385031215611f6c57600080fd5b6000611f7a85828601611cf5565b9250506020611f8b85828601611d1f565b9150509250929050565b60008060408385031215611fa857600080fd5b6000611fb685828601611cf5565b925050602083013567ffffffffffffffff811115611fd357600080fd5b611fdf85828601611d88565b9150509250929050565b60008060408385031215611ffc57600080fd5b600061200a85828601611cf5565b925050602061201b85828601611db2565b9150509250929050565b60006020828403121561203757600080fd5b600061204584828501611d34565b91505092915050565b60006020828403121561206057600080fd5b600061206e84828501611d49565b91505092915050565b60006020828403121561208957600080fd5b600061209784828501611db2565b91505092915050565b6120a981612888565b82525050565b6120b881612814565b82525050565b6120c781612802565b82525050565b6120d681612826565b82525050565b60006120e782612704565b6120f1818561271a565b93506121018185602086016128cd565b61210a81612a99565b840191505092915050565b60006121208261270f565b61212a818561272b565b935061213a8185602086016128cd565b61214381612a99565b840191505092915050565b60006121598261270f565b612163818561273c565b93506121738185602086016128cd565b80840191505092915050565b600061218c60328361272b565b915061219782612aaa565b604082019050919050565b60006121af60258361272b565b91506121ba82612af9565b604082019050919050565b60006121d2601c8361272b565b91506121dd82612b48565b602082019050919050565b60006121f560248361272b565b915061220082612b71565b604082019050919050565b600061221860198361272b565b915061222382612bc0565b602082019050919050565b600061223b60298361272b565b915061224682612be9565b604082019050919050565b600061225e602e8361272b565b915061226982612c38565b604082019050919050565b600061228160228361272b565b915061228c82612c87565b604082019050919050565b60006122a4603e8361272b565b91506122af82612cd6565b604082019050919050565b60006122c760208361272b565b91506122d282612d25565b602082019050919050565b60006122ea60188361272b565b91506122f582612d4e565b602082019050919050565b600061230d60218361272b565b915061231882612d77565b604082019050919050565b6000612330602e8361272b565b915061233b82612dc6565b604082019050919050565b61234f8161287e565b82525050565b6000612361828561214e565b915061236d828461214e565b91508190509392505050565b600060208201905061238e60008301846120be565b92915050565b60006040820190506123a960008301856120be565b6123b660208301846120be565b9392505050565b60006060820190506123d260008301866120be565b6123df60208301856120a0565b6123ec6040830184612346565b949350505050565b600060808201905061240960008301876120be565b61241660208301866120be565b6124236040830185612346565b818103606083015261243581846120dc565b905095945050505050565b600060808201905061245560008301876120be565b6124626020830186612346565b61246f60408301856120af565b61247c60608301846120af565b95945050505050565b600060208201905061249a60008301846120cd565b92915050565b600060208201905081810360008301526124ba8184612115565b905092915050565b600060208201905081810360008301526124db8161217f565b9050919050565b600060208201905081810360008301526124fb816121a2565b9050919050565b6000602082019050818103600083015261251b816121c5565b9050919050565b6000602082019050818103600083015261253b816121e8565b9050919050565b6000602082019050818103600083015261255b8161220b565b9050919050565b6000602082019050818103600083015261257b8161222e565b9050919050565b6000602082019050818103600083015261259b81612251565b9050919050565b600060208201905081810360008301526125bb81612274565b9050919050565b600060208201905081810360008301526125db81612297565b9050919050565b600060208201905081810360008301526125fb816122ba565b9050919050565b6000602082019050818103600083015261261b816122dd565b9050919050565b6000602082019050818103600083015261263b81612300565b9050919050565b6000602082019050818103600083015261265b81612323565b9050919050565b60006020820190506126776000830184612346565b92915050565b6000612687612698565b90506126938282612932565b919050565b6000604051905090565b600067ffffffffffffffff8211156126bd576126bc612a6a565b5b6126c682612a99565b9050602081019050919050565b600067ffffffffffffffff8211156126ee576126ed612a6a565b5b6126f782612a99565b9050602081019050919050565b600081519050919050565b600081519050919050565b600082825260208201905092915050565b600082825260208201905092915050565b600081905092915050565b60006127528261287e565b915061275d8361287e565b9250827fffffffffffffffffffffffffffffffffffffffffffffffffffffffffffffffff03821115612792576127916129dd565b5b828201905092915050565b60006127a88261287e565b91506127b38361287e565b9250826127c3576127c2612a0c565b5b828204905092915050565b60006127d98261287e565b91506127e48361287e565b9250828210156127f7576127f66129dd565b5b828203905092915050565b600061280d8261285e565b9050919050565b600061281f8261285e565b9050919050565b60008115159050919050565b60007fffffffff0000000000000000000000000000000000000000000000000000000082169050919050565b600073ffffffffffffffffffffffffffffffffffffffff82169050919050565b6000819050919050565b60006128938261289a565b9050919050565b60006128a5826128ac565b9050919050565b60006128b78261285e565b9050919050565b82818337600083830152505050565b60005b838110156128eb5780820151818401526020810190506128d0565b838111156128fa576000848401525b50505050565b6000600282049050600182168061291857607f821691505b6020821081141561292c5761292b612a3b565b5b50919050565b61293b82612a99565b810181811067ffffffffffffffff8211171561295a57612959612a6a565b5b80604052505050565b600061296e8261287e565b91507fffffffffffffffffffffffffffffffffffffffffffffffffffffffffffffffff8214156129a1576129a06129dd565b5b600182019050919050565b60006129b78261287e565b91506129c28361287e565b9250826129d2576129d1612a0c565b5b828206905092915050565b7f4e487b7100000000000000000000000000000000000000000000000000000000600052601160045260246000fd5b7f4e487b7100000000000000000000000000000000000000000000000000000000600052601260045260246000fd5b7f4e487b7100000000000000000000000000000000000000000000000000000000600052602260045260246000fd5b7f4e487b7100000000000000000000000000000000000000000000000000000000600052604160045260246000fd5b6000601f19601f8301169050919050565b7f4552433732313a207472616e7366657220746f206e6f6e20455243373231526560008201527f63656976657220696d706c656d656e7465720000000000000000000000000000602082015250565b7f4552433732313a207472616e736665722066726f6d20696e636f72726563742060008201527f6f776e6572000000000000000000000000000000000000000000000000000000602082015250565b7f4552433732313a20746f6b656e20616c7265616479206d696e74656400000000600082015250565b7f4552433732313a207472616e7366657220746f20746865207a65726f2061646460008201527f7265737300000000000000000000000000000000000000000000000000000000602082015250565b7f4552433732313a20617070726f766520746f2063616c6c657200000000000000600082015250565b7f4552433732313a2061646472657373207a65726f206973206e6f74206120766160008201527f6c6964206f776e65720000000000000000000000000000000000000000000000602082015250565b7f45524337323155524953746f726167653a2055524920736574206f66206e6f6e60008201527f6578697374656e7420746f6b656e000000000000000000000000000000000000602082015250565b7f5472616e73666572206f662045544820746f207265636569766572206661696c60008201527f6564000000000000000000000000000000000000000000000000000000000000602082015250565b7f4552433732313a20617070726f76652063616c6c6572206973206e6f7420746f60008201527f6b656e206f776e6572206e6f7220617070726f76656420666f7220616c6c0000602082015250565b7f4552433732313a206d696e7420746f20746865207a65726f2061646472657373600082015250565b7f4552433732313a20696e76616c696420746f6b656e2049440000000000000000600082015250565b7f4552433732313a20617070726f76616c20746f2063757272656e74206f776e6560008201527f7200000000000000000000000000000000000000000000000000000000000000602082015250565b7f4552433732313a2063616c6c6572206973206e6f7420746f6b656e206f776e6560008201527f72206e6f7220617070726f766564000000000000000000000000000000000000602082015250565b612e1e81612802565b8114612e2957600080fd5b50565b612e3581612814565b8114612e4057600080fd5b50565b612e4c81612826565b8114612e5757600080fd5b50565b612e6381612832565b8114612e6e57600080fd5b50565b612e7a8161287e565b8114612e8557600080fd5b5056fea2646970667358221220e7dd95bdd35078e539ceb7817fd3d011c06275f591351f3d394bb82d83f6ea5564736f6c63430008040033a26469706673582212207693bc963d0150cad49a460dce104c4ac3d1288a554a4a08090ff77e3a8cc0cf64736f6c63430008040033",
  "linkReferences": {},
  "deployedLinkReferences": {}
}